:020000040800F2
:10000000380500209D0100081F180008CB150008C6
:100010001D180008D1030008DB1E000800000000C6
:10002000000000000000000000000000591B000854
:10003000D303000800000000691A00085B1B0008D9
:10004000B7010008B7010008B7010008B7010008B0
:10005000B7010008B7010008B7010008B7010008A0
:10006000B7010008B7010008B7010008B701000890
:10007000B7010008B7010008B7010008B701000880
:10008000B7010008B7010008B7010008B701000870
:10009000B7010008B7010008B7010008B701000860
:1000A000B7010008B7010008B7010008B701000850
:1000B000B7010008FD1B0008B7010008B7010008E0
:1000C000B7010008B7010008B7010008B701000830
:1000D000B7010008B7010008B7010008B701000820
:1000E000B7010008B7010008B7010008B701000810
:1000F000B7010008B7010008B7010008B701000800
:10010000B7010008B7010008B7010008B7010008EF
:10011000B7010008B7010008B7010008B7010008DF
:10012000B7010008B7010008B7010008B7010008CF
:10013000B7010008B7010008B7010008B7010008BF
:10014000B7010008B7010008B7010008B7010008AF
:10015000B7010008B7010008B7010008B70100089F
:10016000B7010008B7010008B7010008B70100088F
:10017000B7010008B7010008B7010008000000003F
:10018000B7010008B7010008DFF80CD000F07AF8DA
:10019000004800471D1F000838050020064880471A
:1001A00006480047FEE7FEE7FEE7FEE7FEE7FEE75C
:1001B000FEE7FEE7FEE7FEE7E11B00088901000815
:1001C0002DE9F05F0546002092469B46884606468C
:1001D000814640241BE0284641464746224600F01F
:1001E00041F853465A46C01A914110D31146184659
:1001F000224600F028F82D1A67EB01084F462246E8
:100200000120002100F01FF817EB00094E41201ECD
:10021000A4F10104DFDC484631462A464346BDE8E6
:10022000F09FD2B201E000F8012B491EFBD27047CB
:100230000022F6E710B513460A4604461946FFF7B2
:10024000F0FF204610BD202A04DB203A00FA02F11C
:10025000002070479140C2F1200320FA03F31943B4
:1002600090407047202A04DB203A21FA02F0002156
:10027000704721FA02F3D040C2F1200291400843B6
:1002800019467047064C074D06E0E06840F0010350
:1002900094E8070098471034AC42F6D3FFF778FF94
:1002A000B4250008D4250008464910B54A6822F450
:1002B00040324A604A6843681A434A6001684A68A3
:1002C00022F480724A6001684A68036942EA0322A4
:1002D0004A6001684A6822F040724A6001684A68D0
:1002E00083681A434A6001688A6822F400628A605F
:1002F00001688A68C3681A438A60816A6FF0706215
:10030000D14201688A6822F070628A6001688A6856
:100310000CD0836A1A438A6001688A6822F04052CE
:100320008A6001688A68C36A1A4301E022F0405279
:100330008A6001688A6822F002028A6001688A681D
:10034000037E42EA43028A6090F820100029016887
:100350004A680FD042F400624A6001684A6822F499
:1003600060424A6001684A68174C436A04EB4333B1
:100370001A4301E022F400624A600168CA6A22F46A
:100380007002CA620168CA6A838B104C04EB035383
:100390001A43CA6201688A6822F400728A6001689E
:1003A0008A6890F8303042EA43228A6001688A689D
:1003B00022F480628A6001688A68406942EA80208B
:1003C000886010BD0023014000E0FFFF0000F0FF47
:1003D000FEE770477047000078B50024009490F85D
:1003E0003C20012A19D0012280F83C200A6807230A
:1003F0000568092A13D9EE680A3A02EB42029340D3
:100400009E43EE600B788A680A3B03EB43039A40F5
:100410000368DD682A43DA6010E0022078BD2E69A7
:1004200002EB420293409E432E610B788A6803EBF5
:1004300043039A4003681D692A431A614A681F23CF
:10044000072A13D205686E6B521E02EB820293409C
:100450009E436E630B790A885B1E92B203EB8303A3
:100460009A4003685D6B2A435A6327E005680D2AAA
:1004700012D22E6BD21F02EB820293409E432E6358
:100480000B790A88DB1F92B203EB83039A4003685F
:100490001D6B2A431A6311E0EE6A0D3A02EB8202E9
:1004A00093409E43EE620B790A880D3B92B203EBB8
:1004B00083039A400368DD6A2A43DA62164B0568B3
:1004C000144A9D4206D10D68122D03D1556845F49A
:1004D0008005556005689D4218D10B68102B01D02E
:1004E000112B13D1536843F400035360096810299A
:1004F0000CD10A490A4A0968B1FBF2F101EB81010A
:10050000490000E0491E00910029FBD180F83C40E1
:10051000002078BD00230140002001401000002091
:1005200040420F0070B504004FF0000503D0206C6E
:10053000002610B107E0012070BD204600F01CF835
:10054000666484F83C60206CC00610D4206C20F4F3
:10055000885040F0020020642046FFF7A5FE666444
:10056000206C20F0020040F00100206400E0012532
:1005700084F83C60284670BD10B586B0044614214E
:100580006846FFF755FE1149206888421CD1104883
:100590000021026842F480720260006800F48070FA
:1005A00005900B481438026842F0040202600068AB
:1005B00000F004000590012000900320CDE9010126
:1005C0006946044800F01AF806B010BD002001404A
:1005D000443802400008024070B5044600F0F0F8CC
:1005E0000546601C02D004480078044400F0E8F896
:1005F000401BA042FAD370BD040000202DE9F84F43
:1006000000224FF0010803254FF00F0E0B6808FA87
:1006100002F42340A3426ED14E68012E05D0022E73
:1006200003D0112E01D0122E12D186684FEA420C4F
:1006300005FA0CF7BE43CF6807FA0CF7374387601B
:100640004668A6430C79C4F30014944034434460D4
:10065000C668570005FA07FC8C6826EA0C06BC4001
:100660003443C4604C68022C01D0122C13D1D4083E
:1006700000EB8404A346D4F8209054074FEAD46AD0
:100680000EFA0AF629EA06090E6906FA0AF646EA99
:100690000906CBF8206006680C7926EA0C0604F0FF
:1006A0000304BC40344304604C68E40065D5364C18
:1006B000266846F480462660246822F0030604F487
:1006C00080440094314C3444A446D4F8084896073A
:1006D000370F0EFA07F6B4432D4EB04201D1002673
:1006E00024E02C4EB04201D101261FE02A4EB04238
:1006F00002D102261AE040E0284EB04201D1032682
:1007000014E0274EB04201D104260FE0254EB0423E
:1007100001D105260AE0244EB04201D1062605E0AB
:10072000224EB04201D1072600E00826BE402643F3
:10073000CCF808681E4E34684F689C43FF0300D510
:100740001C4334601A4C241D26684F689E43BF0327
:1007500000D51E432660164E083634684F689C4309
:10076000FF0200D51C433460114E0C3634684F68CC
:100770009C43BF0200D51C433460521C102AFFF476
:1007800045AFBDE8F88F000044380240003001401A
:10079000000002400004024000080240000C024039
:1007A000001002400014024000180240001C0240E9
:1007B000003C01400AB1816170470904FBE7000079
:1007C00001488068704700000400002002488168EA
:1007D0000278114481607047040000200B4810B576
:1007E000016841F400710160016841F480610160B9
:1007F000016841F480710160032000F06FF800206F
:1008000000F006F800F024F8002010BD003C024083
:1008100070B50D4D04464FF47A712878B1FBF0F0B5
:100820000A490968B1FBF0F000F006FC48B9102C49
:1008300007D200222146501E00F030F800206C60E4
:1008400070BD012070BD00000400002010000020D9
:100850000A4808B5016841F480410160006800F46D
:10086000804000900548001F016841F08051016000
:10087000006800F08050009008BD0000443802403D
:10088000002809DB00F01F0201219140400980008F
:1008900000F1E020C0F8001170470000F0B40E4BEA
:1008A0001B680C46C3F30223C3F10705042D00D9CE
:1008B0000425191D072901D2002300E0DB1E0126B3
:1008C00006FA05F1491E214099409E40761E1640C9
:1008D0003143F0BC01F002BB0CED00E0064900F032
:1008E000070208684FF6FF03184040EA0220034A57
:1008F00010430860704700000CED00E00000FA05AE
:100900002DE9F0470E46050065D0DFF81481D8F8D0
:100910000000F7B200F00F00B04207D288F8007074
:10092000D8F8000000F00F00B04254D128683D4CC8
:10093000810712D5400703D5206840F4E0502060BD
:100940002878000703D5206840F4604020602068C4
:10095000A96820F0F000084320602878C0072DD057
:10096000304968680839012812D0022813D00328BA
:1009700011D00968890700292DDA216821F00301C7
:1009800001432160FFF71CFF814641F2883A0EE0E7
:1009900009688903EFE709688901ECE7FFF710FFB1
:1009A000A0EB0901514502D90320BDE8F08720687A
:1009B000696800F00C00B0EB810FEFD1D8F800109F
:1009C000404601F00F01B14207D90770006800F0FE
:1009D0000F00B04201D00120E7E72878400705D595
:1009E0002068E96820F4E050084320602878000778
:1009F00006D52068296920F4604040EAC1002060E3
:100A000000F018F82168084AC1F30311515CC8408E
:100A10000649086006480068FFF7FAFE0020C4E7B0
:100A2000003C024008380240A225000810000020C7
:100A300008000020154810B5006810F00C0214489A
:100A400013D01449042A0FD0082A0ED10F4C241FAA
:100A50002268236802F03F025B0207D52068C0F3DA
:100A60008810A0FB010106E0084610BD2168C1F313
:100A70008811A1FB00010023FFF7A2FB2168C1F34D
:100A80000141491C4900B0FBF1F010BD083802409B
:100A90000024F40040787D012DE9F84F040076D061
:100AA0002078DFF838A3CE4DC00749D0DAF800101F
:100AB0005046C1F38101012908D00068C0F38100CC
:100AC00002280AD1281D0068400206D52868800344
:100AD00036D560680028E2D032E06068B0F5803F2B
:100AE00010D0B0F5A02F286810D020F480302860F6
:100AF000286820F4802028606068A0B1FFF760FEBD
:100B000006460CE0286840F48030F4E740F480208A
:100B10002860F7E7FFF754FE801B642873D8286825
:100B20008003F7D50CE0FFF74BFE064605E000BF5B
:100B3000FFF746FE801B6428F0D828688003F7D4AE
:100B40002078DFF8A08280074FF000093ED5DAF860
:100B50000010504611F00C0F09D00068C0F381005E
:100B600002280BD19D48001F0068400206D4286867
:100B7000800715D5E068012809D111E0E068B8B117
:100B80000120C8F80000FFF71BFE064605E020E143
:100B9000FFF716FE801B0228C0D828688007F7D50B
:100BA0002868216920F0F80040EAC10028600DE0C3
:100BB000C8F80090FFF704FE064604E0FFF700FEC9
:100BC000801B02281FD828688007F7D420780007E8
:100BD00022D5824E844861696C3671B10121016071
:100BE000FFF7EEFD074604E0FFF7EAFDC01B022811
:100BF00009D830688007F7D50EE0C0F80090FFF7FD
:100C0000DFFD074605E082E0FFF7DAFDC01B0228A2
:100C10007DD830688007F7D42078400768D5DFF8A2
:100C2000BCB100270BF1380BDBF80000C0000BD47F
:100C3000DBF8001041F08051CBF80010DBF8000029
:100C4000012700F080500090684E3068C00510D435
:100C5000306840F480703060FFF7B2FD009005E02E
:100C6000FFF7AEFD0099401A022850D83068C00541
:100C7000F6D55A4EA068683601280FD0052830688E
:100C800010D020F001003060306820F004003060A7
:100C9000A068B8B1FFF794FD00900FE0306840F015
:100CA0000100F4E740F004003060F7E7FFF788FD4B
:100CB0000099411A41F28830814266D83068800735
:100CC000F4D50EE0FFF77CFD009007E0FFF778FD1C
:100CD0000099411A41F28830814256D83068800725
:100CE000F4D42FB1DBF8001021F08051CBF80010C4
:100CF000A069D0B3DAF800205146C2F38102022A7B
:100D00004AD00228484607D0C8F8600000E03CE01E
:100D1000FFF756FD04463BE04746C8F86000FFF782
:100D20004FFD064605E000BFFFF74AFD801B022885
:100D30002BD828688001F7D4D4E907010843A16AB9
:100D40002B4A490802EB0141626A41EA82110843D9
:100D500094F82C1040EA01612048001F0160012036
:100D60003866FFF72DFD044605E034E0FFF728FD67
:100D7000001B022809D828688001F7D52BE000BFA6
:100D8000FFF71EFD001B022802D90320BDE8F88FE3
:100D900028688001F4D41EE00128F7D00868E269D1
:100DA00000F48001914214D1226A00F03F01914287
:100DB0000FD147F6C071626A0140914209D1A26A1F
:100DC00000F44031914204D1E16A00F07060884241
:100DD00001D00120DAE70020D8E7000008380240FF
:100DE0000038024000004742800E47420070004039
:100DF0000000FFFF70B5040005D00025A56294F83F
:100E0000510010B106E0012070BD84F8505020461A
:100E100000F030F8022084F851002068016821F0C9
:100E200040010160D4E901010843D4E903121143F0
:100E3000084361690843218B01F400710843E169AB
:100E40000843216A0843A16A084321680860A06931
:100E5000042101EA1040616A084321684860206863
:100E6000C16921F40061C1616565012084F8510008
:100E7000002070BD10B586B0044614216846FFF707
:100E8000D7F913492068884220D11248002102680E
:100E900042F480520260006800F4805005900D48D2
:100EA0001438026842F002020260006800F002009A
:100EB0000590282000900220CDE901010320039035
:100EC0000520049069460448FFF798FB06B010BD62
:100ED0000030014044380240000402402DE9F84F40
:100EE000044690F8500000271D4616468946012802
:100EF0000DD04FF0010B84F850B0FFF761FC804635
:100F000094F85100BA46012804D002278EE002204E
:100F1000BDE8F88FB9F1000F7DD0002E7BD0032003
:100F200084F85100C4F854A0C4F83090A686E68630
:100F3000C4F838A0A4F83CA0A4F83EA0C4F844A08B
:100F4000C4F840A0A068B0F5004F04D12068016843
:100F500041F48041016020680168490603D40168BA
:100F600041F040010160E068B0F5006F606803D0B7
:100F700030B3012E24D040E008B1012E1CD1206BEB
:100F800021680088C86006E020688168890709D563
:100F9000216B0988C160206B801C2063E08E401E9D
:100FA000E08609E0FFF70CFCA0EB0800A84202D3A2
:100FB000681C01D031E07DB3E08E0028E4D11FE051
:100FC000206B21680078087306E020688168890733
:100FD00009D5216B09780173206B401C2063E08EDA
:100FE000401EE08609E0FFF7EBFBA0EB0800A842FB
:100FF00002D3681C01D010E075B1E08E0028E4D166
:1010000042462946204600F031FD08B120206065A7
:10101000A06820B107E008E0FFE7032706E02068AA
:10102000C16880680090606D00B1012784F851B0FC
:1010300084F850A038466BE710B5401EB0F1807FB1
:1010400001D3012010BD4FF0E02460610F21601733
:1010500000F044FF0020A06107202061002010BDA7
:101060007047704770B590F83C20012A32D00124B7
:1010700080F83C40022280F83D2003685A689D6851
:1010800022F070060A6832435A60134B02689A4293
:1010900014D0B2F1804F11D0104B9A420ED0104BA9
:1010A0009A420BD00F4B9A4208D00F4B9A4205D070
:1010B0000E4B9A4202D00E4B9A4204D1496825F059
:1010C00080031943916080F83D40002180F83C1076
:1010D000084670BD022070BD0000014000040040C1
:1010E00000080040000C00400004014000400140A6
:1010F0000018004010B5040003D094F83D0010B172
:1011000007E0012010BD002084F83C00204600F0DC
:101110000DF8022084F83D00211D206800F074FDC8
:10112000012084F83D00002010BD000008B5114AE0
:1011300001681148914211D1016841F0020101603A
:101140000068002200F00200009011461D20FFF709
:10115000A5FBBDE808401D20FFF792BB074A91425E
:1011600007D1016841F004010160006800F004004B
:10117000009008BD000400404038024000080040D4
:101180000168CA6842F00102CA600068816801F023
:101190000701062903D0016841F001010160002028
:1011A000704770B5044690F83C00012817D001251F
:1011B00084F83C50022084F83D002068826822F0C8
:1011C000770222F47F4282600868502830D00DDC1C
:1011D00020284DD005DC98B310283BD148E00220F0
:1011E00070BD302844D0402834D139E0602828D060
:1011F000702806D0B0F5805F2CD0B0F5005F29D103
:101200000AE0CB68D1E90121206800F06EFD20687A
:10121000816841F0770109E0CB68D1E901212068BC
:1012200000F063FD2068816841F48041816011E035
:10123000CA684968206800F02DFE5021206807E048
:1012400016E0CA684968206800F035FE6021206811
:1012500000F055FD84F83D50002084F83C0070BD3E
:10126000CA684968206800F015FE40212068EFE751
:10127000226801461046EBE7704770B504460068E7
:1012800001694FF00005C943890715D4C168C943F6
:10129000890711D4E91E0161012020772068806947
:1012A0008007204602D0FFF7E7FF04E000F0C2F815
:1012B000204600F044F9257720680169C9434907B1
:1012C00017D4C168C943490713D46FF00401016101
:1012D000022020772068806910F4407F204602D0E9
:1012E000FFF7CAFF04E000F0A5F8204600F027F958
:1012F000257720680169C943090716D4C168C94325
:10130000090712D46FF008010161042020772068DA
:10131000C0698007204602D0FFF7AEFF04E000F06E
:1013200089F8204600F00BF9257720680169C94348
:10133000C90617D4C168C943C90613D46FF0100198
:101340000161082020772068C06910F4407F2046A2
:1013500002D0FFF791FF04E000F06CF8204600F0A7
:10136000EEF8257720680169C943C90708D1C1682B
:10137000C943C90704D1891E0161204600F002F962
:1013800020680169C943090609D4C168C94309062F
:1013900005D46FF0800101612046FFF761FE2068EF
:1013A0000169C943490609D4C168C943490605D43E
:1013B0006FF040010161204600F006F920680169E4
:1013C000C94389060BD4C168C943890607D46FF0A5
:1013D000200101612046BDE87040FFF742BE70BDAC
:1013E00010B586B0044614216846FEF721FF0E4969
:1013F0002068884215D10D480021026842F0080299
:101400000260006800F0080005904FF40040009072
:101410000220CDE90101CDE9031069460448FFF738
:10142000EDF806B010BD0000000800403038024062
:10143000000C0240704770B5044690F83C000D4621
:1014400001280DD0012684F83C60022084F83D007C
:1014500042B1042A18D0082A2AD00C2A4DD139E0EA
:10146000022070BD206800F053FC2068816941F0C3
:10147000080181612068816921F00401816120688F
:1014800081692A69114311E0206800F071FC20682D
:10149000816941F4006181612068816921F4806182
:1014A0008161206881692A6941EA0221816124E021
:1014B000206800F093FC2068C16941F00801C16117
:1014C0002068C16921F00401C1612068C1692A69ED
:1014D000114311E0206800F0B5FC2068C16941F4B7
:1014E0000061C1612068C16921F48061C161206827
:1014F000C1692A6941EA0221C16184F83D60002086
:1015000084F83C0070BD10B5040003D094F83D0091
:1015100010B107E0012010BD002084F83C002046F7
:1015200000F00CF8022084F83D00211D206800F036
:101530006BFB012084F83D00002010BD7047704710
:1015400010B504460068012200F0C2FB0B49206878
:10155000884202D00A49884203D1416C41F40041DB
:1015600041642068816801F00701062903D0016801
:1015700041F001010160002010BD000000000140A9
:101580000004014038B50D49884216D10C4C42F296
:10159000107100252088401C80B22080884200D92C
:1015A0002580002107A2084600F010FA00950423C8
:1015B00022880221002000F099F938BDB4000020F3
:1015C000000000204F4B00007047FEE77FB500246D
:1015D000144800940194029411490394C0E9001442
:1015E00084600461047680F820400F49C0E90A1441
:1015F0000125C561C46080F830404561FEF792FF67
:1016000008B1FEF7E7FE0A20CDE90005694602941D
:101610000448FEF7E1FE002801D0FEF7DBFE7FBDA7
:1016200000200140140000200100000F70B586B0BA
:1016300014216846FEF7FCFD22480025016841F0B0
:1016400080010160016801F080010591016841F0AD
:1016500004010160016801F004010591016841F095
:1016600010010160016801F010010591016841F06D
:1016700008010160016801F008010591016841F06D
:1016800001010160016801F001010591016841F06B
:101690000201016000680C4E00F0020048F2800474
:1016A0000590002221463046FFF784F80120CDE95D
:1016B00000400320CDE9025069463046FEF79EFF08
:1016C00006B070BD3038024000100240104810B51E
:1016D0000E4901604FF48271416000218160C16058
:1016E0004FF400720161C0E905120822C0E9072128
:1016F000416281620A21C162FFF77CFB002803D0AE
:10170000BDE81040FEF766BE10BD0000003001408D
:101710005C00002010B586B00024184800940194A5
:1017200002940394049414490594016040F60F61F7
:10173000C0E9011440F21F31C0E903148021816126
:10174000FFF7D8FC08B1FEF745FE4FF4805000903B
:1017500069460A48FFF725FD08B1FEF73BFE0494F1
:1017600004A906480594FFF77DFC002801D0FEF788
:1017700031FE06B010BD000000040040B40000209F
:1017800010B58EB000240794089409940A940B9421
:101790001C2168460C94FEF74BFD1F481D49C0E90B
:1017A000001440F26711C0E90241802104618161A7
:1017B000FFF7A0FC08B1FEF70DFE4FF48050079034
:1017C00007A91548FFF7EDFC08B1FEF703FE124824
:1017D000FFF799FE08B1FEF7FDFD0B940BA90E482B
:1017E0000C94FFF73FFC08B1FEF7F4FD6020009079
:1017F000B320CDE901040C22694607480494FFF7A1
:101800001AFE08B1FEF7E6FD0348FFF7E9FD0EB04A
:1018100010BD000000080040F4000020FEE7704703
:1018200070B5002404F1B000C0B2002100F092FBBA
:101830000021084600F08EFB0021102000F08AFBFA
:1018400000250121002000F085FB6D1CEDB2802DEC
:10185000F7D3641CE4B2082CE4D370BD10B5044681
:10186000B031C8B2002100F075FB102040EA14101E
:10187000002100F06FFB04F00F00BDE8104040F0C5
:101880000100002100F066BB2DE9F041203A002460
:101890000D468046D7B27F2803D900208D1C804694
:1018A000EDB22946FFF7DAFF0F4E00BF04EB071039
:1018B0000121305C00F04EFB641CE4B2082CF5D32F
:1018C0006D1CE9B24046FFF7C9FF002404EB071086
:1018D00030440121007A00F03DFB641CE4B2082C86
:1018E000F4D3BDE8F0810000941F00082DE9FF5FEC
:1018F0001F46DDF838B0140081464FF000064FF067
:101900000A0AA3F1010837D52D2248460199FFF7AD
:10191000BBFF08F0FF0509F10800C4F10008C7B2D9
:10192000002425E0281B401EC1B20A2000F02AFB3B
:10193000B8FBF0F1B1FBFAF20AFB121026B9691EEE
:101940008C4201DA30B101263030C2B207EBC4005C
:10195000C0B208E007EBC400BBF1000FC0B201D079
:10196000302200E020220199FFF78EFF641CE4B2D0
:10197000AC42D7D3BDE8FF9F002524E0781B401E72
:10198000C1B20A2000F0FEFAB4FBF0F1B1FBFAF2AA
:101990000AFB12101EB9454501DA30B1012630307C
:1019A000C2B209EBC500C0B208E009EBC500BBF14B
:1019B000000FC0B201D0302200E020220199FFF7D1
:1019C00063FF6D1CEDB2BD42D8D3D3E72DE9F041E2
:1019D00017460E46044600250CE031462046FFF728
:1019E00053FF0834E4B2782C02D90024B61CF6B2B6
:1019F0006D1CEDB27A5D002AEFD1BDE8F0810000E8
:101A000010B5164C012280212046FEF7D3FE64203B
:101A1000FEF7E2FD002280212046FEF7CBFE642087
:101A2000FEF7DAFD012280212046FEF7C3FE0022E8
:101A30004FF400412046FEF7BDFE64231D220849F5
:101A40000848FFF74BFAFFF7EBFE00210846FFF7C7
:101A500005FFBDE81040FFF7E3BE000000100240A4
:101A6000842500085C0000207047000038B504465B
:101A70001248134B0068B0FBF3F04FF47A735843ED
:101A800000906068B0F5827F0DD10B460092002275
:101A90008021204600F016F870B1606D40F0200003
:101AA0006065032038BD009830B1401E009020686A
:101AB0008068C0430006F6D5002038BD1000002025
:101AC00000366E012DE9F0411D4617460E460446CC
:101AD000DDF8188008E0681C06D0FEF771FEA0EB68
:101AE0000800A8420BD255B12068806836EA000091
:101AF00030D00020B842EED10020BDE8F08120684F
:101B0000416821F0E00141606068B0F5827F0BD14F
:101B1000A068B0F5004F02D0B0F5806F04D1206806
:101B2000016821F040010160A06AB0F5005F09D1B1
:101B30002068016821F4005101602068016841F4C7
:101B400000510160012084F85100002084F8500009
:101B50000320D2E70120CDE77047FEF737BE000033
:101B600030B593B030216846FEF762FB14210CA813
:101B7000FEF75EFB18480025016841F080510160C6
:101B8000006800F0805011901448016841F48041D1
:101B900001600068022400F480401190012003904D
:101BA00010200490009406940820CDE907504820A6
:101BB000CDE9090404200B906846FEF76DFF0CA9DF
:101BC0000F2081E83100E002CDE90F0502210CA8C9
:101BD000FEF796FE13B030BD403802400070004062
:101BE0000548016841F47001016003494FF000604D
:101BF000803908607047000088ED00E00148FFF779
:101C00003CBB0000B4000020F0B50268254C264D16
:101C1000264E274F274B4FF0804CA04209D06045FD
:101C200007D0A84205D0B04203D0B84201D09842B4
:101C300004D122F0700E4A6842EA0E02A0421BD084
:101C4000604519D0A84217D0B04215D0B84213D081
:101C5000984211D0184DA8420ED0184DA8420BD072
:101C6000174DA84208D0174DA84205D0164DA842DE
:101C700002D0164DA84203D122F44075CA682A4307
:101C80004D6922F080022A4302608A68C2620A68B3
:101C90008262A04201D0984201D109690163012109
:101CA0004161F0BD00000140000400400008004018
:101CB000000C00400004014000400140004401408D
:101CC0000048014000180040001C00400020004077
:101CD00010B501F01F030121046A99408C4304628E
:101CE000016A9A401143016210BD10B5846842EA4E
:101CF000032224F47F440A432243826010BD826899
:101D000022F070020A4342F0070181607047000030
:101D1000F0B5026A22F001020262036A4268846935
:101D2000124E24F073050C682C4323F002058B68D7
:101D30002B430D4DA84201D0B04205D123F0080736
:101D4000CB683B4323F00403A84201D0B04205D145
:101D50004D6922F4407215438A692A4342608461C6
:101D6000496841630362F0BD000001400004014086
:101D7000F0B5026A22F010020262026A43688469C6
:101D80000D6824F4E64444EA05248D6822F020021C
:101D900042EA05120F4D104EA84201D0B04206D1C2
:101DA000CF6822F0800242EA071222F04002A842E5
:101DB00001D0B04207D14D6923F4406343EA850363
:101DC0008D6943EA850343608461496881630262E7
:101DD000F0BD00000000014000040140F0B5026ABF
:101DE00022F480720262026A4368C46922F40072BB
:101DF00024F073050C68124E2C438D6842EA0522CC
:101E00000E4DA84201D0B04206D1CF6822F4006244
:101E100042EA072222F48062A84201D0B04207D1F0
:101E20004D6923F4405343EA05138D6943EA0513D2
:101E30004360C4614968C1630262F0BD00000140B3
:101E40000004014030B5026A22F480520262046A42
:101E50004268C3690D6823F4E64343EA05238D68AD
:101E600024F4005444EA0534084DA84202D0084D39
:101E7000A84204D14D6922F4804242EA85124260B0
:101E8000C36149680164046230BD00000000014084
:101E90000004014010B5036A046A24F001040462DE
:101EA000846924F0F00444EA021423F00A020A438D
:101EB0008461026210BD10B5036A23F0100303624F
:101EC0008369046A23F4704343EA023224F0A003D6
:101ED00043EA01118261016210BDFEE70907090EA4
:101EE000002804DB00F1E02080F80014704700F0C7
:101EF0000F0000F1E02080F8141D704702E008C8D0
:101F0000121F08C1002AFAD170477047002001E073
:101F100001C1121F002AFBD170470000FEF75EFCD2
:101F2000FFF71EFEFFF782FBFFF72AFCFFF74EFBD1
:101F3000FFF7CCFBFFF7EEFBFFF762FD0C21034838
:101F4000FFF7FEFA0248FFF71BF9FEE7F400002056
:101F5000B400002013B509484FF4004301290AD00A
:101F600000221946FEF726FC01231A46694604485A
:101F7000FEF7B4FF1CBD0122F3E700000010024091
:101F80005C0000200246012000E05043491EC9B217
:101F9000FBD27047000000000000000000000000BD
:101FA00000000000000000F8000000000000003306
:101FB0003000000000100C06100C060000000000AD
:101FC0000000000040C07840C0784000043F040496
:101FD0003F040400007088FC08300000001820FF57
:101FE000211E0000F008F000E018000000211C0392
:101FF0001E211E0000F00888700000001E2123240E
:102000001927211010160E0000000000000000002B
:1020100000000000000000E01804020000000007BB
:102020001820400000020418E000000000402018C2
:1020300007000000404080F0804040000202010F95
:1020400001020200000000F0000000000101011F79
:1020500001010100000000000000000080B07000DD
:10206000000000000000000000000000000101016D
:1020700001010101000000000000000000303000FC
:1020800000000000000000008060180400601806D6
:102090000100000000E010080810E000000F102010
:1020A00020100F00001010F8000000000020203F5A
:1020B00020200000007008080888700000302824E4
:1020C0002221300000300888884830000018202085
:1020D00020110E000000C02010F8000000070424AA
:1020E000243F240000F808888808080000192120EF
:1020F00020110E0000E0108888180000000F112049
:1021000020110E0000380808C83808000000003F01
:10211000000000000070880808887000001C222160
:1021200021221C0000E010080810E000000031220D
:1021300022110F00000000C0C000000000000030AD
:1021400030000000000000800000000000008060FF
:102150000000000000008040201008000001020480
:102160000810200040404040404040000404040467
:102170000404040000081020408000000020100823
:1021800004020100007048080808F0000000003058
:1021900036010000C030C828E810E00007182724E6
:1021A00023140B000000C038E0000000203C230294
:1021B0000227382008F8888888700000203F2020F7
:1021C00020110E00C0300808080838000718202029
:1021D0002010080008F808080810E000203F202020
:1021E00020100F0008F88888E8081000203F202001
:1021F0002320180008F88888E8081000203F2000F5
:1022000003000000C030080808380000071820202C
:10221000221E020008F808000008F808203F2101EB
:1022200001213F20000808F8080800000020203F96
:102230002020000000000808F8080800C080808006
:102240007F00000008F888C028180800203F2001FF
:102250002638200008F8080000000000203F202059
:102260002020300008F8F800F8F80800203F003F70
:10227000003F200008F830C00008F808203F200088
:1022800007183F00E01008080810E0000F10202099
:1022900020100F0008F808080808F000203F21016E
:1022A00001010000E01008080810E0000F182424C5
:1022B00038504F0008F8888888887000203F200038
:1022C000030C3020007088080808380000382021EE
:1022D00021221C00180808F8080818000000203FF8
:1022E0002000000008F808000008F808001F20205F
:1022F00020201F000878880000C838080000073830
:102300000E010000F80800F80008F800033C070080
:10231000073C0300081868808068180820302C03E8
:10232000032C30200838C800C83808000000203FBF
:102330002000000010080808C838080020382621AE
:1023400020201800000000FE020202000000007FB2
:1023500040404000000C30C00000000000000001C0
:102360000638C00000020202FE00000000404040AB
:102370007F000000000004020202040000000000D0
:10238000000000000000000000000000808080804D
:102390008080808000020204000000000000000035
:1023A00000000000000080808080000000192422CE
:1023B00022223F2008F8008080000000003F11200A
:1023C00020110E000000008080800000000E11200F
:1023D00020201100000000808088F800000E1120ED
:1023E00020103F200000808080800000001F2222FB
:1023F00022221300008080F0888888180020203F67
:10240000202000000000808080808000006B949479
:102410009493600008F8008080800000203F210035
:1024200000203F2000809898000000000020203FFE
:1024300020200000000000809898000000C08080EC
:10244000807F000008F8000080808000203F240288
:102450002D302000000808F8000000000020203F78
:10246000202000008080808080808000203F20002D
:102470003F20003F8080008080800000203F2100BE
:1024800000203F200000808080800000001F20206E
:1024900020201F00808000808000000080FFA1209D
:1024A00020110E000000008080808000000E1120AE
:1024B00020A0FF80808080008080800020203F213D
:1024C00020000100000080808080800000332424F0
:1024D00024241900008080E0808000000000001F9C
:1024E000202000008080000000808000001F20204D
:1024F00020103F20808080000080808000010E300E
:102500000806010080800080008080800F300C036E
:102510000C300F0000808000808080000020312E71
:102520000E312000808080000080808080818E704D
:102530001806010000808080808080000021302CFF
:102540002221300000000000807C02020000000018
:10255000003F404000000000FF00000000000000BD
:10256000FF0000000002027C800000000040403FAD
:102570000000000000060101020204040000000047
:1025800000000000AE00104081CFA1C8A6A83FD334
:1025900000D580D9F1DA12DB4020028D14A4A6AF59
:1025A000AF00000000000000000001020304060765
:1025B00008090000D42500080000002014000000D5
:1025C000FC1E0008E8250008140000202405000077
:1025D0000C1F0008000000000100000010000000B7
:0825E000000000000024F400DB
:040000050800018965
:00000001FF
